{
  "contractName": "TransferContract",
  "abi": [
    {
      "inputs": [],
      "stateMutability": "nonpayable",
      "type": "constructor"
    },
    {
      "inputs": [
        {
          "internalType": "uint256",
          "name": "amountToBeTransferred",
          "type": "uint256"
        },
        {
          "internalType": "address payable[]",
          "name": "Ether_Receivers",
          "type": "address[]"
        }
      ],
      "name": "Transfer_Ether",
      "outputs": [
        {
          "internalType": "uint256",
          "name": "",
          "type": "uint256"
        },
        {
          "internalType": "uint256",
          "name": "",
          "type": "uint256"
        },
        {
          "internalType": "bool",
          "name": "",
          "type": "bool"
        }
      ],
      "stateMutability": "payable",
      "type": "function",
      "payable": true
    },
    {
      "inputs": [
        {
          "internalType": "bytes4",
          "name": "YourTokenInterface",
          "type": "bytes4"
        },
        {
          "internalType": "address payable[]",
          "name": "ERC20_Receivers",
          "type": "address[]"
        },
        {
          "internalType": "uint256",
          "name": "value",
          "type": "uint256"
        }
      ],
      "name": "Transfer_ERC20",
      "outputs": [
        {
          "internalType": "bool",
          "name": "",
          "type": "bool"
        }
      ],
      "stateMutability": "payable",
      "type": "function",
      "payable": true
    }
  ],
  "bytecode": "0x60806040526064600a60015461001591906101c4565b61001f91906101c4565b60035560035460015461003291906101f5565b60045530600560006101000a81548173ffffffffffffffffffffffffffffffffffffffff021916908373ffffffffffffffffffffffffffffffffffffffff16021790555033600660006101000a81548173ffffffffffffffffffffffffffffffffffffffff021916908373ffffffffffffffffffffffffffffffffffffffff1602179055503480156100c357600080fd5b5033600260006101000a81548173ffffffffffffffffffffffffffffffffffffffff021916908373ffffffffffffffffffffffffffffffffffffffff1602179055506001600760006336372b0760e01b7bffffffffffffffffffffffffffffffffffffffffffffffffffffffff1916815260200190815260200160002060006101000a81548160ff021916908315150217905550610229565b6000819050919050565b7f4e487b7100000000000000000000000000000000000000000000000000000000600052601260045260246000fd5b7f4e487b7100000000000000000000000000000000000000000000000000000000600052601160045260246000fd5b60006101cf8261015c565b91506101da8361015c565b9250826101ea576101e9610166565b5b828204905092915050565b60006102008261015c565b915061020b8361015c565b92508282101561021e5761021d610195565b5b828203905092915050565b610b3b80620002396000396000f3fe6080604052600436106100295760003560e01c80632e4ec1331461002e578063d67921a11461005e575b600080fd5b610048600480360381019061004391906106cd565b610090565b6040516100559190610757565b60405180910390f35b61007860048036038101906100739190610772565b610315565b604051610087939291906107dd565b60405180910390f35b6000600160076000867bffffffffffffffffffffffffffffffffffffffffffffffffffffffff19167bffffffffffffffffffffffffffffffffffffffffffffffffffffffff1916815260200190815260200160002060006101000a81548160ff021916908315150217905561013a576040517f08c379a000000000000000000000000000000000000000000000000000000000815260040161013190610871565b60405180910390fd5b81600081905550600060035460005461015391906108c0565b9050600084516000546101669190610923565b9050600660009054906101000a900473ffffffffffffffffffffffffffffffffffffffff1673ffffffffffffffffffffffffffffffffffffffff1663a9059cbb600560009054906101000a900473ffffffffffffffffffffffffffffffffffffffff16846040518363ffffffff1660e01b81526004016101e79291906109b3565b6020604051808303816000875af1158015610206573d6000803e3d6000fd5b505050506040513d601f19601f8201168201806040525081019061022a9190610a08565b5060005b855181101561030757600660009054906101000a900473ffffffffffffffffffffffffffffffffffffffff1673ffffffffffffffffffffffffffffffffffffffff166323b872dd3388848151811061028957610288610a35565b5b6020026020010151856040518463ffffffff1660e01b81526004016102b093929190610a85565b6020604051808303816000875af11580156102cf573d6000803e3d6000fd5b505050506040513d601f19601f820116820180604052508101906102f39190610a08565b5080806102ff90610abc565b91505061022e565b506001925050509392505050565b60008060008460018190555060003373ffffffffffffffffffffffffffffffffffffffff16311161034557600080fd5b600154341061035357600080fd5b600084511161036157600080fd5b600084516001546103729190610923565b9050600560009054906101000a900473ffffffffffffffffffffffffffffffffffffffff1673ffffffffffffffffffffffffffffffffffffffff166108fc6004549081150290604051600060405180830381858888f193505050501580156103de573d6000803e3d6000fd5b5060005b855181101561045f578581815181106103fe576103fd610a35565b5b602002602001015173ffffffffffffffffffffffffffffffffffffffff166108fc839081150290604051600060405180830381858888f1935050505015801561044b573d6000803e3d6000fd5b50808061045790610abc565b9150506103e2565b50600454816001935093509350509250925092565b6000604051905090565b600080fd5b600080fd5b60007fffffffff0000000000000000000000000000000000000000000000000000000082169050919050565b6104bd81610488565b81146104c857600080fd5b50565b6000813590506104da816104b4565b92915050565b600080fd5b6000601f19601f8301169050919050565b7f4e487b7100000000000000000000000000000000000000000000000000000000600052604160045260246000fd5b61052e826104e5565b810181811067ffffffffffffffff8211171561054d5761054c6104f6565b5b80604052505050565b6000610560610474565b905061056c8282610525565b919050565b600067ffffffffffffffff82111561058c5761058b6104f6565b5b602082029050602081019050919050565b600080fd5b600073ffffffffffffffffffffffffffffffffffffffff82169050919050565b60006105cd826105a2565b9050919050565b6105dd816105c2565b81146105e857600080fd5b50565b6000813590506105fa816105d4565b92915050565b600061061361060e84610571565b610556565b905080838252602082019050602084028301858111156106365761063561059d565b5b835b8181101561065f578061064b88826105eb565b845260208401935050602081019050610638565b5050509392505050565b600082601f83011261067e5761067d6104e0565b5b813561068e848260208601610600565b91505092915050565b6000819050919050565b6106aa81610697565b81146106b557600080fd5b50565b6000813590506106c7816106a1565b92915050565b6000806000606084860312156106e6576106e561047e565b5b60006106f4868287016104cb565b935050602084013567ffffffffffffffff81111561071557610714610483565b5b61072186828701610669565b9250506040610732868287016106b8565b9150509250925092565b60008115159050919050565b6107518161073c565b82525050565b600060208201905061076c6000830184610748565b92915050565b600080604083850312156107895761078861047e565b5b6000610797858286016106b8565b925050602083013567ffffffffffffffff8111156107b8576107b7610483565b5b6107c485828601610669565b9150509250929050565b6107d781610697565b82525050565b60006060820190506107f260008301866107ce565b6107ff60208301856107ce565b61080c6040830184610748565b949350505050565b600082825260208201905092915050565b7f596f757220546f6b656e206d7573742062652045524332300000000000000000600082015250565b600061085b601883610814565b915061086682610825565b602082019050919050565b6000602082019050818103600083015261088a8161084e565b9050919050565b7f4e487b7100000000000000000000000000000000000000000000000000000000600052601160045260246000fd5b60006108cb82610697565b91506108d683610697565b9250828210156108e9576108e8610891565b5b828203905092915050565b7f4e487b7100000000000000000000000000000000000000000000000000000000600052601260045260246000fd5b600061092e82610697565b915061093983610697565b925082610949576109486108f4565b5b828204905092915050565b6000819050919050565b600061097961097461096f846105a2565b610954565b6105a2565b9050919050565b600061098b8261095e565b9050919050565b600061099d82610980565b9050919050565b6109ad81610992565b82525050565b60006040820190506109c860008301856109a4565b6109d560208301846107ce565b9392505050565b6109e58161073c565b81146109f057600080fd5b50565b600081519050610a02816109dc565b92915050565b600060208284031215610a1e57610a1d61047e565b5b6000610a2c848285016109f3565b91505092915050565b7f4e487b7100000000000000000000000000000000000000000000000000000000600052603260045260246000fd5b6000610a6f826105a2565b9050919050565b610a7f81610a64565b82525050565b6000606082019050610a9a6000830186610a76565b610aa760208301856109a4565b610ab460408301846107ce565b949350505050565b6000610ac782610697565b91507fffffffffffffffffffffffffffffffffffffffffffffffffffffffffffffffff821415610afa57610af9610891565b5b60018201905091905056fea2646970667358221220ea90aadb254b0601bdd08b44ff98612c96704779ae16242e79f3d3694f2de64b64736f6c634300080a0033",
  "immutableReferences": {},
  "source": "//SPDX-Liscence-Identifier : MIT\r\npragma solidity >0.8.0 ;\r\n\r\nimport \"openzeppelin-solidity/contracts/token/ERC20/ERC20.sol\";\r\n\r\n\r\ncontract TransferContract{\r\n\r\nconstructor(){\r\n    Owner = payable(msg.sender);\r\n    SupportInterface[0x36372b07]= true;\r\n}\r\n\r\n\r\nuint Value;\r\nuint Amount;\r\naddress payable Owner;\r\nuint Fees = (Amount/10)  / 100;\r\nuint FeesDeduction = Amount - Fees;\r\naddress payable  ContractAddress = payable(address(this));\r\nERC20 e = ERC20(msg.sender);\r\n\r\nmapping(bytes4 => bool) SupportInterface;\r\n\r\nfunction Transfer_Ether(uint amountToBeTransferred, address payable[] memory Ether_Receivers) public payable returns(uint, uint, bool) {\r\n    Amount = amountToBeTransferred;\r\n\r\n    require(msg.sender.balance > 0);\r\n    require(msg.value < Amount);\r\n    require(Ether_Receivers.length > 0);\r\n    uint EqualAmount = Amount / Ether_Receivers.length;\r\n    \r\n    ContractAddress.transfer(FeesDeduction);\r\n\r\n     for (uint256 i = 0; i < Ether_Receivers.length; i++)\r\n            Ether_Receivers[i].transfer(EqualAmount);\r\n\r\n            return(FeesDeduction, EqualAmount, true);\r\n}\r\n\r\nfunction Transfer_ERC20(bytes4 YourTokenInterface, address payable[] memory ERC20_Receivers, uint value) public payable returns(bool){\r\n    require(SupportInterface[YourTokenInterface] = true, \"Your Token must be ERC20\");\r\n    Value = value;\r\n    uint FeeDeduction = Value - Fees;\r\n    uint EqualValue = Value / ERC20_Receivers.length;\r\n\r\n    e.transfer(ContractAddress, FeeDeduction);\r\n    \r\n    for (uint256 i = 0; i < ERC20_Receivers.length; i++)\r\n            e.transferFrom(msg.sender, ERC20_Receivers[i], EqualValue);\r\n            \r\n            return true;\r\n\r\n}\r\n\r\nfunction WithdrawEthers(uint AMOUNT) private returns(bool){\r\n    require(msg.sender == Owner);\r\n    Owner.transfer(AMOUNT);\r\n    return true;\r\n}\r\n\r\nfunction WithdrawERC20(uint VALUE) private returns(bool){\r\n    require(msg.sender == Owner);\r\n    e.transfer(Owner, VALUE);\r\n    return true;\r\n}\r\n}",
  "sourcePath": "F:\\solidity-smart-contracts\\TransferContract\\contracts\\TransferContract.sol",
  "compiler": {
    "name": "solc",
    "version": "0.8.10+commit.fc410830.Emscripten.clang"
  },
  "schemaVersion": "3.4.3",
  "updatedAt": "2021-11-25T16:17:53.300Z",
  "networkType": "ethereum",
  "devdoc": {
    "kind": "dev",
    "methods": {},
    "version": 1
  },
  "userdoc": {
    "kind": "user",
    "methods": {},
    "version": 1
  }
}